{
  "contractName": "SimpleRealEstate",
  "abi": [
    {
      "inputs": [
        {
          "internalType": "string",
          "name": "_propertyAddress",
          "type": "string"
        },
        {
          "internalType": "uint256",
          "name": "_propertyValue",
          "type": "uint256"
        },
        {
          "internalType": "string",
          "name": "_longitude",
          "type": "string"
        },
        {
          "internalType": "string",
          "name": "_latitude",
          "type": "string"
        }
      ],
      "stateMutability": "nonpayable",
      "type": "constructor"
    },
    {
      "anonymous": false,
      "inputs": [
        {
          "indexed": true,
          "internalType": "address",
          "name": "from",
          "type": "address"
        },
        {
          "indexed": true,
          "internalType": "address",
          "name": "to",
          "type": "address"
        },
        {
          "indexed": false,
          "internalType": "string",
          "name": "propertyAddress",
          "type": "string"
        },
        {
          "indexed": false,
          "internalType": "uint256",
          "name": "value",
          "type": "uint256"
        }
      ],
      "name": "PropertyTransferred",
      "type": "event"
    },
    {
      "inputs": [],
      "name": "latitude",
      "outputs": [
        {
          "internalType": "string",
          "name": "",
          "type": "string"
        }
      ],
      "stateMutability": "view",
      "type": "function",
      "constant": true
    },
    {
      "inputs": [],
      "name": "longitude",
      "outputs": [
        {
          "internalType": "string",
          "name": "",
          "type": "string"
        }
      ],
      "stateMutability": "view",
      "type": "function",
      "constant": true
    },
    {
      "inputs": [],
      "name": "owner",
      "outputs": [
        {
          "internalType": "address",
          "name": "",
          "type": "address"
        }
      ],
      "stateMutability": "view",
      "type": "function",
      "constant": true
    },
    {
      "inputs": [],
      "name": "propertyAddress",
      "outputs": [
        {
          "internalType": "string",
          "name": "",
          "type": "string"
        }
      ],
      "stateMutability": "view",
      "type": "function",
      "constant": true
    },
    {
      "inputs": [],
      "name": "propertyValue",
      "outputs": [
        {
          "internalType": "uint256",
          "name": "",
          "type": "uint256"
        }
      ],
      "stateMutability": "view",
      "type": "function",
      "constant": true
    },
    {
      "inputs": [
        {
          "internalType": "address",
          "name": "_newOwner",
          "type": "address"
        }
      ],
      "name": "transferProperty",
      "outputs": [],
      "stateMutability": "nonpayable",
      "type": "function"
    },
    {
      "inputs": [],
      "name": "getPropertyDetails",
      "outputs": [
        {
          "internalType": "address",
          "name": "",
          "type": "address"
        },
        {
          "internalType": "string",
          "name": "",
          "type": "string"
        },
        {
          "internalType": "uint256",
          "name": "",
          "type": "uint256"
        },
        {
          "internalType": "string",
          "name": "",
          "type": "string"
        },
        {
          "internalType": "string",
          "name": "",
          "type": "string"
        }
      ],
      "stateMutability": "view",
      "type": "function",
      "constant": true
    }
  ],
  "bytecode": "0x608060405234801562000010575f80fd5b506040516200109638038062001096833981810160405281019062000036919062000279565b335f806101000a81548173ffffffffffffffffffffffffffffffffffffffff021916908373ffffffffffffffffffffffffffffffffffffffff160217905550836001908162000086919062000573565b508260028190555081600390816200009f919062000573565b508060049081620000b1919062000573565b505050505062000657565b5f604051905090565b5f80fd5b5f80fd5b5f80fd5b5f80fd5b5f601f19601f8301169050919050565b7f4e487b71000000000000000000000000000000000000000000000000000000005f52604160045260245ffd5b6200011d82620000d5565b810181811067ffffffffffffffff821117156200013f576200013e620000e5565b5b80604052505050565b5f62000153620000bc565b905062000161828262000112565b919050565b5f67ffffffffffffffff821115620001835762000182620000e5565b5b6200018e82620000d5565b9050602081019050919050565b5f5b83811015620001ba5780820151818401526020810190506200019d565b5f8484015250505050565b5f620001db620001d58462000166565b62000148565b905082815260208101848484011115620001fa57620001f9620000d1565b5b620002078482856200019b565b509392505050565b5f82601f830112620002265762000225620000cd565b5b815162000238848260208601620001c5565b91505092915050565b5f819050919050565b620002558162000241565b811462000260575f80fd5b50565b5f8151905062000273816200024a565b92915050565b5f805f8060808587031215620002945762000293620000c5565b5b5f85015167ffffffffffffffff811115620002b457620002b3620000c9565b5b620002c2878288016200020f565b9450506020620002d58782880162000263565b935050604085015167ffffffffffffffff811115620002f957620002f8620000c9565b5b62000307878288016200020f565b925050606085015167ffffffffffffffff8111156200032b576200032a620000c9565b5b62000339878288016200020f565b91505092959194509250565b5f81519050919050565b7f4e487b71000000000000000000000000000000000000000000000000000000005f52602260045260245ffd5b5f60028204905060018216806200039457607f821691505b602082108103620003aa57620003a96200034f565b5b50919050565b5f819050815f5260205f209050919050565b5f6020601f8301049050919050565b5f82821b905092915050565b5f600883026200040e7fffffffffffffffffffffffffffffffffffffffffffffffffffffffffffffffff82620003d1565b6200041a8683620003d1565b95508019841693508086168417925050509392505050565b5f819050919050565b5f6200045b620004556200044f8462000241565b62000432565b62000241565b9050919050565b5f819050919050565b62000476836200043b565b6200048e620004858262000462565b848454620003dd565b825550505050565b5f90565b620004a462000496565b620004b18184846200046b565b505050565b5b81811015620004d857620004cc5f826200049a565b600181019050620004b7565b5050565b601f8211156200052757620004f181620003b0565b620004fc84620003c2565b810160208510156200050c578190505b620005246200051b85620003c2565b830182620004b6565b50505b505050565b5f82821c905092915050565b5f620005495f19846008026200052c565b1980831691505092915050565b5f62000563838362000538565b9150826002028217905092915050565b6200057e8262000345565b67ffffffffffffffff8111156200059a5762000599620000e5565b5b620005a682546200037c565b620005b3828285620004dc565b5f60209050601f831160018114620005e9575f8415620005d4578287015190505b620005e0858262000556565b8655506200064f565b601f198416620005f986620003b0565b5f5b828110156200062257848901518255600182019150602085019450602081019050620005fb565b868310156200064257848901516200063e601f89168262000538565b8355505b6001600288020188555050505b505050505050565b610a3180620006655f395ff3fe608060405234801561000f575f80fd5b506004361061007b575f3560e01c806366440d711161005957806366440d71146100d95780638da5cb5b146100f7578063c979218314610115578063d81bc271146101315761007b565b80631015c6821461007f5780634fd7d76a1461009d578063589af69c146100bb575b5f80fd5b610087610153565b6040516100949190610675565b60405180910390f35b6100a5610159565b6040516100b29190610718565b60405180910390f35b6100c36101e5565b6040516100d09190610718565b60405180910390f35b6100e1610271565b6040516100ee9190610718565b60405180910390f35b6100ff6102fd565b60405161010c9190610777565b60405180910390f35b61012f600480360381019061012a91906107be565b610320565b005b61013961047e565b60405161014a9594939291906107e9565b60405180910390f35b60025481565b600480546101669061087c565b80601f01602080910402602001604051908101604052809291908181526020018280546101929061087c565b80156101dd5780601f106101b4576101008083540402835291602001916101dd565b820191905f5260205f20905b8154815290600101906020018083116101c057829003601f168201915b505050505081565b600380546101f29061087c565b80601f016020809104026020016040519081016040528092919081815260200182805461021e9061087c565b80156102695780601f1061024057610100808354040283529160200191610269565b820191905f5260205f20905b81548152906001019060200180831161024c57829003601f168201915b505050505081565b6001805461027e9061087c565b80601f01602080910402602001604051908101604052809291908181526020018280546102aa9061087c565b80156102f55780601f106102cc576101008083540402835291602001916102f5565b820191905f5260205f20905b8154815290600101906020018083116102d857829003601f168201915b505050505081565b5f8054906101000a900473ffffffffffffffffffffffffffffffffffffffff1681565b5f8054906101000a900473ffffffffffffffffffffffffffffffffffffffff1673ffffffffffffffffffffffffffffffffffffffff163373ffffffffffffffffffffffffffffffffffffffff16146103ad576040517f08c379a00000000000000000000000000000000000000000000000000000000081526004016103a49061091c565b60405180910390fd5b5f805f9054906101000a900473ffffffffffffffffffffffffffffffffffffffff169050815f806101000a81548173ffffffffffffffffffffffffffffffffffffffff021916908373ffffffffffffffffffffffffffffffffffffffff1602179055508173ffffffffffffffffffffffffffffffffffffffff168173ffffffffffffffffffffffffffffffffffffffff167fba98351df830435fa8702f8432f08e158f34148bd7acfdadff46e10a666bc26460016002546040516104729291906109cd565b60405180910390a35050565b5f60605f6060805f8054906101000a900473ffffffffffffffffffffffffffffffffffffffff166001600254600360048380546104ba9061087c565b80601f01602080910402602001604051908101604052809291908181526020018280546104e69061087c565b80156105315780601f1061050857610100808354040283529160200191610531565b820191905f5260205f20905b81548152906001019060200180831161051457829003601f168201915b505050505093508180546105449061087c565b80601f01602080910402602001604051908101604052809291908181526020018280546105709061087c565b80156105bb5780601f10610592576101008083540402835291602001916105bb565b820191905f5260205f20905b81548152906001019060200180831161059e57829003601f168201915b505050505091508080546105ce9061087c565b80601f01602080910402602001604051908101604052809291908181526020018280546105fa9061087c565b80156106455780601f1061061c57610100808354040283529160200191610645565b820191905f5260205f20905b81548152906001019060200180831161062857829003601f168201915b50505050509050945094509450945094509091929394565b5f819050919050565b61066f8161065d565b82525050565b5f6020820190506106885f830184610666565b92915050565b5f81519050919050565b5f82825260208201905092915050565b5f5b838110156106c55780820151818401526020810190506106aa565b5f8484015250505050565b5f601f19601f8301169050919050565b5f6106ea8261068e565b6106f48185610698565b93506107048185602086016106a8565b61070d816106d0565b840191505092915050565b5f6020820190508181035f83015261073081846106e0565b905092915050565b5f73ffffffffffffffffffffffffffffffffffffffff82169050919050565b5f61076182610738565b9050919050565b61077181610757565b82525050565b5f60208201905061078a5f830184610768565b92915050565b5f80fd5b61079d81610757565b81146107a7575f80fd5b50565b5f813590506107b881610794565b92915050565b5f602082840312156107d3576107d2610790565b5b5f6107e0848285016107aa565b91505092915050565b5f60a0820190506107fc5f830188610768565b818103602083015261080e81876106e0565b905061081d6040830186610666565b818103606083015261082f81856106e0565b9050818103608083015261084381846106e0565b90509695505050505050565b7f4e487b71000000000000000000000000000000000000000000000000000000005f52602260045260245ffd5b5f600282049050600182168061089357607f821691505b6020821081036108a6576108a561084f565b5b50919050565b7f4f6e6c7920746865206f776e65722063616e207472616e7366657220746865205f8201527f70726f7065727479000000000000000000000000000000000000000000000000602082015250565b5f610906602883610698565b9150610911826108ac565b604082019050919050565b5f6020820190508181035f830152610933816108fa565b9050919050565b5f819050815f5260205f209050919050565b5f81546109588161087c565b6109628186610698565b9450600182165f811461097c5760018114610992576109c4565b60ff1983168652811515602002860193506109c4565b61099b8561093a565b5f5b838110156109bc5781548189015260018201915060208101905061099d565b808801955050505b50505092915050565b5f6040820190508181035f8301526109e5818561094c565b90506109f46020830184610666565b939250505056fea264697066735822122032cd80e750577d7dcd011d23fbcae6a626143de0011934e561b4e7f2cec7385c64736f6c63430008150033",
  "immutableReferences": {},
  "source": "// SPDX-License-Identifier: MIT \r\npragma solidity ^0.8.0; \r\n\r\ncontract SimpleRealEstate { \r\n    address public owner; \r\n    string public propertyAddress; \r\n    uint public propertyValue; \r\n    string public longitude;\r\n    string public latitude;\r\n\r\n    event PropertyTransferred(address indexed from, address indexed to, string propertyAddress, uint value); \r\n\r\n    constructor(string memory _propertyAddress, uint _propertyValue, string memory _longitude, string memory _latitude) { \r\n        owner = msg.sender; \r\n        propertyAddress = _propertyAddress; \r\n        propertyValue = _propertyValue; \r\n        longitude = _longitude;\r\n        latitude = _latitude;\r\n    } \r\n\r\n    modifier onlyOwner() { \r\n        require(msg.sender == owner, \"Only the owner can transfer the property\"); \r\n        _; \r\n    } \r\n\r\n    function transferProperty(address _newOwner) public onlyOwner { \r\n        address previousOwner = owner; \r\n        owner = _newOwner; \r\n        emit PropertyTransferred(previousOwner, _newOwner, propertyAddress, propertyValue); \r\n    } \r\n\r\n    function getPropertyDetails() public view returns (address, string memory, uint, string memory, string memory) { \r\n        return (owner, propertyAddress, propertyValue, longitude, latitude); \r\n    } \r\n}",
  "sourcePath": "C:\\Users\\ASUS\\Desktop\\sample\\SampleRealEstate\\contracts\\SimpleRealEstate.sol",
  "compiler": {
    "name": "solc",
    "version": "0.8.21+commit.d9974bed.Emscripten.clang"
  },
  "schemaVersion": "3.4.16",
  "updatedAt": "2024-06-08T19:30:30.063Z",
  "networkType": "ethereum",
  "devdoc": {
    "kind": "dev",
    "methods": {},
    "version": 1
  },
  "userdoc": {
    "kind": "user",
    "methods": {},
    "version": 1
  }
}