{
  "contractName": "SimpleRealEstate",
  "abi": [
    {
      "inputs": [
        {
          "internalType": "string",
          "name": "_propertyAddress",
          "type": "string"
        },
        {
          "internalType": "uint256",
          "name": "_propertyValue",
          "type": "uint256"
        }
      ],
      "stateMutability": "nonpayable",
      "type": "constructor"
    },
    {
      "anonymous": false,
      "inputs": [
        {
          "indexed": true,
          "internalType": "address",
          "name": "from",
          "type": "address"
        },
        {
          "indexed": true,
          "internalType": "address",
          "name": "to",
          "type": "address"
        },
        {
          "indexed": false,
          "internalType": "string",
          "name": "propertyAddress",
          "type": "string"
        },
        {
          "indexed": false,
          "internalType": "uint256",
          "name": "value",
          "type": "uint256"
        }
      ],
      "name": "PropertyTransferred",
      "type": "event"
    },
    {
      "inputs": [],
      "name": "owner",
      "outputs": [
        {
          "internalType": "address",
          "name": "",
          "type": "address"
        }
      ],
      "stateMutability": "view",
      "type": "function",
      "constant": true
    },
    {
      "inputs": [],
      "name": "propertyAddress",
      "outputs": [
        {
          "internalType": "string",
          "name": "",
          "type": "string"
        }
      ],
      "stateMutability": "view",
      "type": "function",
      "constant": true
    },
    {
      "inputs": [],
      "name": "propertyValue",
      "outputs": [
        {
          "internalType": "uint256",
          "name": "",
          "type": "uint256"
        }
      ],
      "stateMutability": "view",
      "type": "function",
      "constant": true
    },
    {
      "inputs": [
        {
          "internalType": "address",
          "name": "_newOwner",
          "type": "address"
        }
      ],
      "name": "transferProperty",
      "outputs": [],
      "stateMutability": "nonpayable",
      "type": "function"
    },
    {
      "inputs": [],
      "name": "getPropertyDetails",
      "outputs": [
        {
          "internalType": "address",
          "name": "",
          "type": "address"
        },
        {
          "internalType": "string",
          "name": "",
          "type": "string"
        },
        {
          "internalType": "uint256",
          "name": "",
          "type": "uint256"
        }
      ],
      "stateMutability": "view",
      "type": "function",
      "constant": true
    }
  ],
  "bytecode": "0x608060405234801562000010575f80fd5b5060405162000d4238038062000d42833981810160405281019062000036919062000253565b335f806101000a81548173ffffffffffffffffffffffffffffffffffffffff021916908373ffffffffffffffffffffffffffffffffffffffff1602179055508160019081620000869190620004e5565b50806002819055505050620005c9565b5f604051905090565b5f80fd5b5f80fd5b5f80fd5b5f80fd5b5f601f19601f8301169050919050565b7f4e487b71000000000000000000000000000000000000000000000000000000005f52604160045260245ffd5b620000f782620000af565b810181811067ffffffffffffffff82111715620001195762000118620000bf565b5b80604052505050565b5f6200012d62000096565b90506200013b8282620000ec565b919050565b5f67ffffffffffffffff8211156200015d576200015c620000bf565b5b6200016882620000af565b9050602081019050919050565b5f5b838110156200019457808201518184015260208101905062000177565b5f8484015250505050565b5f620001b5620001af8462000140565b62000122565b905082815260208101848484011115620001d457620001d3620000ab565b5b620001e184828562000175565b509392505050565b5f82601f8301126200020057620001ff620000a7565b5b8151620002128482602086016200019f565b91505092915050565b5f819050919050565b6200022f816200021b565b81146200023a575f80fd5b50565b5f815190506200024d8162000224565b92915050565b5f80604083850312156200026c576200026b6200009f565b5b5f83015167ffffffffffffffff8111156200028c576200028b620000a3565b5b6200029a85828601620001e9565b9250506020620002ad858286016200023d565b9150509250929050565b5f81519050919050565b7f4e487b71000000000000000000000000000000000000000000000000000000005f52602260045260245ffd5b5f60028204905060018216806200030657607f821691505b6020821081036200031c576200031b620002c1565b5b50919050565b5f819050815f5260205f209050919050565b5f6020601f8301049050919050565b5f82821b905092915050565b5f60088302620003807fffffffffffffffffffffffffffffffffffffffffffffffffffffffffffffffff8262000343565b6200038c868362000343565b95508019841693508086168417925050509392505050565b5f819050919050565b5f620003cd620003c7620003c1846200021b565b620003a4565b6200021b565b9050919050565b5f819050919050565b620003e883620003ad565b62000400620003f782620003d4565b8484546200034f565b825550505050565b5f90565b6200041662000408565b62000423818484620003dd565b505050565b5b818110156200044a576200043e5f826200040c565b60018101905062000429565b5050565b601f8211156200049957620004638162000322565b6200046e8462000334565b810160208510156200047e578190505b620004966200048d8562000334565b83018262000428565b50505b505050565b5f82821c905092915050565b5f620004bb5f19846008026200049e565b1980831691505092915050565b5f620004d58383620004aa565b9150826002028217905092915050565b620004f082620002b7565b67ffffffffffffffff8111156200050c576200050b620000bf565b5b620005188254620002ee565b620005258282856200044e565b5f60209050601f8311600181146200055b575f841562000546578287015190505b620005528582620004c8565b865550620005c1565b601f1984166200056b8662000322565b5f5b8281101562000594578489015182556001820191506020850194506020810190506200056d565b86831015620005b45784890151620005b0601f891682620004aa565b8355505b6001600288020188555050505b505050505050565b61076b80620005d75f395ff3fe608060405234801561000f575f80fd5b5060043610610055575f3560e01c80631015c6821461005957806366440d71146100775780638da5cb5b14610095578063c9792183146100b3578063d81bc271146100cf575b5f80fd5b6100616100ef565b60405161006e91906103d9565b60405180910390f35b61007f6100f5565b60405161008c919061047c565b60405180910390f35b61009d610181565b6040516100aa91906104db565b60405180910390f35b6100cd60048036038101906100c89190610522565b6101a4565b005b6100d7610302565b6040516100e69392919061054d565b60405180910390f35b60025481565b60018054610102906105b6565b80601f016020809104026020016040519081016040528092919081815260200182805461012e906105b6565b80156101795780601f1061015057610100808354040283529160200191610179565b820191905f5260205f20905b81548152906001019060200180831161015c57829003601f168201915b505050505081565b5f8054906101000a900473ffffffffffffffffffffffffffffffffffffffff1681565b5f8054906101000a900473ffffffffffffffffffffffffffffffffffffffff1673ffffffffffffffffffffffffffffffffffffffff163373ffffffffffffffffffffffffffffffffffffffff1614610231576040517f08c379a000000000000000000000000000000000000000000000000000000000815260040161022890610656565b60405180910390fd5b5f805f9054906101000a900473ffffffffffffffffffffffffffffffffffffffff169050815f806101000a81548173ffffffffffffffffffffffffffffffffffffffff021916908373ffffffffffffffffffffffffffffffffffffffff1602179055508173ffffffffffffffffffffffffffffffffffffffff168173ffffffffffffffffffffffffffffffffffffffff167fba98351df830435fa8702f8432f08e158f34148bd7acfdadff46e10a666bc26460016002546040516102f6929190610707565b60405180910390a35050565b5f60605f805f9054906101000a900473ffffffffffffffffffffffffffffffffffffffff166001600254818054610338906105b6565b80601f0160208091040260200160405190810160405280929190818152602001828054610364906105b6565b80156103af5780601f10610386576101008083540402835291602001916103af565b820191905f5260205f20905b81548152906001019060200180831161039257829003601f168201915b50505050509150925092509250909192565b5f819050919050565b6103d3816103c1565b82525050565b5f6020820190506103ec5f8301846103ca565b92915050565b5f81519050919050565b5f82825260208201905092915050565b5f5b8381101561042957808201518184015260208101905061040e565b5f8484015250505050565b5f601f19601f8301169050919050565b5f61044e826103f2565b61045881856103fc565b935061046881856020860161040c565b61047181610434565b840191505092915050565b5f6020820190508181035f8301526104948184610444565b905092915050565b5f73ffffffffffffffffffffffffffffffffffffffff82169050919050565b5f6104c58261049c565b9050919050565b6104d5816104bb565b82525050565b5f6020820190506104ee5f8301846104cc565b92915050565b5f80fd5b610501816104bb565b811461050b575f80fd5b50565b5f8135905061051c816104f8565b92915050565b5f60208284031215610537576105366104f4565b5b5f6105448482850161050e565b91505092915050565b5f6060820190506105605f8301866104cc565b81810360208301526105728185610444565b905061058160408301846103ca565b949350505050565b7f4e487b71000000000000000000000000000000000000000000000000000000005f52602260045260245ffd5b5f60028204905060018216806105cd57607f821691505b6020821081036105e0576105df610589565b5b50919050565b7f4f6e6c7920746865206f776e65722063616e207472616e7366657220746865205f8201527f70726f7065727479000000000000000000000000000000000000000000000000602082015250565b5f6106406028836103fc565b915061064b826105e6565b604082019050919050565b5f6020820190508181035f83015261066d81610634565b9050919050565b5f819050815f5260205f209050919050565b5f8154610692816105b6565b61069c81866103fc565b9450600182165f81146106b657600181146106cc576106fe565b60ff1983168652811515602002860193506106fe565b6106d585610674565b5f5b838110156106f6578154818901526001820191506020810190506106d7565b808801955050505b50505092915050565b5f6040820190508181035f83015261071f8185610686565b905061072e60208301846103ca565b939250505056fea26469706673582212203ecf00316a11cfc907cf4444ce6ca1cd1944cceba7cdb4ecfe8471d17d4951d064736f6c63430008150033",
  "immutableReferences": {},
  "source": "// SPDX-License-Identifier: MIT \r\npragma solidity ^0.8.0; \r\n  \r\ncontract SimpleRealEstate { \r\n    address public owner; \r\n    string public propertyAddress; \r\n    uint public propertyValue; \r\n  \r\n    event PropertyTransferred(address indexed from, address indexed to, string \r\npropertyAddress, uint value); \r\n  \r\n    constructor(string memory _propertyAddress, uint _propertyValue) { \r\n        owner = msg.sender; \r\n        propertyAddress = _propertyAddress; \r\n        propertyValue = _propertyValue; \r\n    } \r\n  \r\n    modifier onlyOwner() { \r\n        require(msg.sender == owner, \"Only the owner can transfer the property\"); \r\n        _; \r\n    } \r\n  \r\n    function transferProperty(address _newOwner) public onlyOwner { \r\n        address previousOwner = owner; \r\n        owner = _newOwner; \r\n        emit PropertyTransferred(previousOwner, _newOwner, propertyAddress, \r\npropertyValue); \r\n    } \r\n  \r\n    function getPropertyDetails() public view returns (address, string memory, \r\nuint) { \r\n        return (owner, propertyAddress, propertyValue); \r\n    } \r\n} \r\n",
  "sourcePath": "C:\\Users\\ASUS\\Desktop\\sample\\SampleRealEstate\\contracts\\SimpleRealEstate.sol",
  "compiler": {
    "name": "solc",
    "version": "0.8.21+commit.d9974bed.Emscripten.clang"
  },
  "schemaVersion": "3.4.16",
  "updatedAt": "2024-06-08T18:49:37.233Z",
  "networkType": "ethereum",
  "devdoc": {
    "kind": "dev",
    "methods": {},
    "version": 1
  },
  "userdoc": {
    "kind": "user",
    "methods": {},
    "version": 1
  }
}